:1000000029EF08F062961200046ED8CF05F0E0CF19
:1000100006F00001E9CF0CF0EACF07F0E1CF08F0DD
:10002000E2CF09F0D9CF0AF0DACF0BF0F3CF12F01C
:10003000F4CF13F0FACF14F0FBCF15F000C00EF0A0
:1000400001C00FF002C010F003C011F0A0A82CEF07
:1000500000F0A1B892EF06F00EC000F00FC001F062
:1000600010C002F011C003F00CC0E9FF07C0EAFFA6
:10007000078E08C0E1FF09C0E2FF0AC0D9FF0BC02C
:10008000DAFF12C0F3FF13C0F4FF14C0FAFF15C06B
:10009000FBFF045006C0E0FF05C0D8FF1000F76A60
:1000A000B20FF66E000EF722000EF86E0900F55042
:1000B00012000002FFFFFFFFFFFFFFFFFFFFFFFF38
:1000C000FFFF07AE03D0F2CF0DF0F29EF76AE80F04
:1000D000F66E000EF722000EF86E0900F55007AE1E
:1000E00002D00DBEF28E12000800080000000000D1
:1000F0000000000000000000000000000000000000
:100100000000000000000000F76A1C0FF66E010EF0
:10011000F722000EF86E0900F55012000600FF09E4
:1001200001A101190129081580257F75089508810D
:100130000219012908750895089102C0F76A500F45
:10014000F66E010EF722000EF86E0900F55012004F
:100150000000F76A660FF66E010EF722000EF86EC9
:100160000900F55012002000F76A7C0FF66E010EB0
:10017000F722000EF86E0900F5501200090229005E
:10018000010100C03209040000020300000009213F
:10019000000100012220000705810308000A07056D
:1001A000010308000A00F76ABA0FF66E010EF72283
:1001B000000EF86E0900F55012000100F76AD00F2A
:1001C000F66E010EF722000EF86E0900F5501200CF
:1001D0001200F76AE60FF66E010EF722000EF86EB7
:1001E0000900F55012001201100100000008D804A7
:1001F0002000000101020001F76A0C0FF66E020EEA
:10020000F722000EF86E0900F550120004030904ED
:1002100008035500530042001C0349004E005400DF
:100220004500530043002000200020002000200053
:100230002000200065920F015C9562A402D06294B8
:10024000FCD70001A3EF06F0080E0401016F040EB5
:10025000036F100E026F880E006F046B040E076FA1
:10026000180E066F000112000F014CA104D000010E
:10027000EBDF0F014C91629A0001AFEF06F0636A69
:100280006292B9EF06F04D904CBE4D804C9E4C50A2
:10029000100803E2000E016E20D04DA010D0036ABA
:1002A0004C50F2CF4EF0F29EFADE4EBEF28EFF08B8
:1002B00002E1000E01D0010E016E0FD00ED0036AD4
:1002C0004C50F2CF4EF0F29EEADE4EBEF28EFF08A8
:1002D00002E1000E01D0010E016E1200036A4B50C4
:1002E0004C0FE96E0F0E0320EA6EEF6A4BC04CF024
:1002F000CADF015218E04B50080DF3504D6AE96E09
:10030000040E4D24EA6EEF6A4B50080DF3504D6A0F
:100310004C6E040E4C26000E4D224CC0E9FF040E1C
:100320004D24EA6EEF6A1200010E4A6E4A500F0821
:1003300005E34AC04BF0D2DF4A2AF8D71200266AFA
:10034000256A406A40520AE1036A4050270FE96E6D
:10035000000E0320EA6EEF6A402AF4D7196A010EF4
:100360001A6E186A1200636A626A9F0E0F015D6F4F
:100370003D0E5C6F5E6B0001D7DFE1DF160E0F01F3
:100380004C6F62A604D000013DDE0F01FAD76598DC
:1003900000015ADF030E206EC3EF06F00F015C85EB
:1003A000629865820001CDEF06F0629CD7EF06F0FF
:1003B00045C021F0120021681200436A2550261022
:1003C00046E04350070843E31B50FC0F2EE2040FA6
:1003D00032EF02F024C003F02350F2CF45F0F29E3A
:1003E000C3DE45BEF28E446E20D024C003F02350FD
:1003F000F2CF45F0F29E88DE45BEF28E446E15D0F7
:1004000024C003F02350F2CF45F0F29EF5DE45BE46
:10041000F28E446E0AD024C003F02350F2CF45F090
:10042000F29ED7DE45BEF28E446E232AD8B4242A2B
:100430002550D8B4260625064350432A036A180FD0
:10044000E96E040E0320EA6E44C0EFFFB7D72550D3
:10045000261004E14350080801E0186A43C045F043
:10046000A7DF1200E824F76AF736850FF66E040E50
:10047000F722000EF86EFB6E0A00F550FA6E0800C7
:10048000F550F96ED403EA0300041604246A236AC3
:100490001B6A04011351010A000109E0030A0DE07F
:1004A000010A0FE0220A29E0030A4DE078D0266A0B
:1004B000120E256E030E1B6E74D0266A290E256E51
:1004C00070D0020E1B6E036A040112511C0FE96EFC
:1004D000000E0320EA6E246AEFCF23F024C003F05D
:1004E0002350F2CF43F0F29E000186DE43BEF28E2F
:1004F000036A256E03C026F054D0D890040112354B
:10050000036AF2CF43F0F29E000158DE0900F5CFF6
:1005100003F043BEF28E236E03C024F0233C02D0CE
:1005200024520FE024C003F02350F2CF43F0F29E98
:100530001BDE43BEF28E036A256E03C026F031D067
:1005400002D039DF3DD0D89004011435036AF2CFD0
:1005500043F0F29E0001F2DD0900F5CF03F043BE47
:10056000F28E236E03C024F0233C02D0245215E007
:10057000010E1B6ED89004011435036AF2CF43F0CC
:10058000F29E0001E6DD0900F5CF03F043BEF28ED6
:10059000256E03C026F005D002D00DDF11D00BDF91
:1005A0000FD00401175308E1265203E12550165DD0
:1005B00003E2266A16C425F0010E186E0001FDDE66
:1005C0001200425204E1040E206EAEDED1D0050EC0
:1005D000206E040E456E200E446E010E436E435095
:1005E0000F08D8A0C5D043C04BF078DE466A036A36
:1005F0004350F2CF4AF0F29E52DD4ABEF28EFF081F
:1006000059E0040E466ED8904334036AF2CF4AF0A4
:10061000F29E57DD0900F5CF03F04ABEF28E476E19
:1006200003C048F04350080DF3504B6A4A6E010E68
:100630004A24016E000E4B20036E01C0E9FF040E38
:100640000324EA6E47C0EFFF4350080DF3504B6A96
:100650004A6E020E4A24016E000E4B20036E01C04A
:10066000E9FF040E0324EA6E45C0ECFFED5244C0DE
:10067000EFFFD8904334036AF2CF4AF0F29E21DDB7
:100680000900F5CF03F04ABEF28E442603504522FE
:10069000880E496E48A001D0498048A201D0498205
:1006A0004350080DF3504B6AE96E040E4B24EA6E7A
:1006B00049C0EFFF036A4350F2CF4AF0F29EEFDCED
:1006C0004ABEF28EFF0839E046824350080DF350CF
:1006D0004B6A4A6E040E4A26000E4B22020E4A2432
:1006E000016E000E4B20036E01C0E9FF040E0324CF
:1006F000EA6E45C0ECFFED5244C0EFFFD8904334A2
:10070000036AF2CF4AF0F29EDCDC0900F5CF03F079
:100710004ABEF28E4426035045224350080DF35042
:100720004B6A4A6E040E4A26000E4B224AC0E9FF6D
:10073000040E4B24EA6E400EEF6E4650060802E1AE
:100740000E0E466E036A4350F2CF4AF0F29EA7DCCB
:100750004ABEF28E010801E04688036A43504C0FFE
:10076000E96E0F0E0320EA6E46C0EFFF432A37D72B
:1007700007EF04F004011151000A00010DE0010A25
:1007800014E0020A1FE0060A29E0030A2EE00E0A1E
:100790002EE0010A32E040D01AC018F40401196BAF
:1007A000020E456E000104DE38D00401122D07D080
:1007B000010E1A16456A0001FBDD03D00401000199
:1007C000FADD2BD00401122D06D01A82456A0001F1
:1007D000EFDD03D004010001EEDD1FD0020E186E24
:1007E00012C422F0456AE4DD18D050DE16D019C0DC
:1007F00018F4010E456EDCDD10D004011251010821
:1008000009E312C419F012C442F00001DAD6456AB5
:10081000CFDD0401000101D0CEDD1AEF05F019C0D3
:1008200042F004011151000A000107E00A0A0DE03C
:10083000010A2DE00D0A3DE03ED00401186B196B52
:10084000020E456E0001B4DD37D042521EE0010EAB
:10085000425C036AF2CF43F0F29EA5DC43BEF28E07
:10086000016E0401145DD8A002D000010ED0036A0D
:100870001451270FE96E000E0320EA6EEFCF18F433
:10088000010E456E000194DD01D095DD15D0425278
:100890000EE0036A04011451270FE96E000E0320D5
:1008A000EA6E12C4EFFF456A000182DD01D083DDEC
:1008B00003D0ECDD01D07FDD1AEF05F0439042BE9E
:1008C0004380429E43A011D04250080DF350456A28
:1008D000446E040E4426000E452244C0E9FF040E77
:1008E0004524EA6E880EEF6E09D04250080DF35091
:1008F000456AE96E040E4524EA6EEF6AE0EF04F003
:10090000439042BE4380429E43A011D04250080D06
:10091000F350456A446E040E4426000E452244C03E
:10092000E9FF040E4524EA6E840EEF6E0AD04250B1
:10093000080DF350456AE96E040E4524EA6E840EF4
:10094000EF6EE6EF04F0439042BE4380429E43A028
:1009500011D04250080DF350466A456E040E4526EC
:10096000000E462245C0E9FF040E4624EA6EEFCF92
:1009700044F00AD04250080DF350466AE96E040E66
:100980004624EA6EEFCF44F044AE02D044B402D025
:10099000000E01D0010E016EF0EF04F014C44CF013
:1009A00072DC015228E004011151010A000105E046
:1009B000020A09E0030A0DE01DD014C442F07ED7FC
:1009C000456AF6DC18D014C442F09AD7456AF0DCC8
:1009D00012D00401186B196B14C442F00001B3D794
:1009E000015204E0010E0401186F0001020E456E71
:1009F000DFDC01D0E0DC1AEF05F004011151000149
:100A0000DADC1AEF05F0186A040110517F0B000AB6
:100A1000000107E0010A07E0030A07E0230A07E0F4
:100A200008D0A8D607D0FBD605D0B8D703D0E5D7D5
:100A300001D0C1DC42EF06F04250080DF350486A85
:100A4000E96E040E4824EA6EEFCF44F043500208EA
:100A500006E144AC02D0436A02D0010E436E43501B
:100A6000030813E1840E446E4250080DF350486AA7
:100A7000476E040E4726000E482247C0E9FF040EC9
:100A80004824EA6E840EEF6E07D0432C03D0C80EC4
:100A9000446E02D0880E446ED8904234036AF2CF7E
:100AA00047F0F29E61EC00F00900F5CF03F047BE7D
:100AB000F28E456E03C046F04250080DF350486A6E
:100AC000476E010E4724016E000E4820036E01C0E0
:100AD000E9FF040E0324EA6E45C0EFFF46A001D0F3
:100AE000448046A201D044824250080DF350486A27
:100AF000E96E040E4824EA6E44C0EFFF1200036A58
:100B000047504C0FE96E0F0E0320EA6EEF5212E0D1
:100B10004750080DF350496A486E040E4826000EEF
:100B2000492248C0E9FF040E4924EA6EEFCF4AF09B
:100B30004AAE02D0000E01D0010E016E120042C07A
:100B400047F0DDDF015263E04250080DF350486A80
:100B5000476E040E4726000E4822010E4724016E00
:100B6000000E4820036E01C0E9FF040E0324EA6E64
:100B700043C0EFFF4550020817E14250080DF35003
:100B8000486A476E040E4726000E482247C0E9FF18
:100B9000040E4824EA6EEFCF46F046AC02D0456A18
:100BA00002D0010E456E13D04550040810E14250AA
:100BB000080DF350486AE96E040E4824EA6EEFCF40
:100BC00046F046AC03D0010E456E01D0456A452C77
:100BD00003D0C80E466E02D0880E466E44A001D0E7
:100BE000468044A201D046824250080DF350486A24
:100BF000476E040E4726000E482247C0E9FF040E48
:100C00004824EA6E46C0EFFF010E016E02D0000ECE
:100C1000016E1200425200E1120043C05EFF4352D7
:100C200003E0040E206E02D0020E206E1DEF06F0CF
:100C3000196A186A22C043F0F0D72AEF06F0425230
:100C400009E1182C03D0DDEC01F004D018500208A3
:100C5000D8B4EED712001F30406E403240321F0E23
:100C600040161F5241E1040100513C0B416E430EFE
:100C70000017415034081EE10451800B01E0046B61
:100C80000001C1D66598213C05D0426A030E436E2F
:100C9000D3DE0ED0426A020E436ECEDE2150FE0835
:100CA00007E0426A446A21C043F0040E456E47DF04
:100CB00018D004014150040815E1426A0001AADF7E
:100CC000426A020E436EB8DE2150FE080AE0213C63
:100CD00001D007D0426A446A21C043F0010E456E3C
:100CE0002EDF04011CD000011F5004080EE1216812
:100CF000426AA5DF213C01D007D0426A446A21C084
:100D000043F0020E456E1BDF09D01FB404D040C073
:100D100042F080DF03D040C042F091DF04010001C7
:100D2000E5EF06F0A1982052D8B455D06252D8B45D
:100D300052D062A408D00F015CB502D0000103D0EC
:100D400000011AEF01F065B246D062AA08D00F0187
:100D50005CBB02D0000103D0000134EF01F062A2BD
:100D600008D00F015CB302D0000103D000013FEFB7
:100D700001F062A008D00F015CB102D0000103D0E5
:100D80000001B3EF01F062A808D00F015CB902D0F6
:100D9000000103D00001CEEF01F062AC08D00F01DA
:100DA0005CBD02D0000103D00001D5EF01F03F6A25
:100DB00062A60CD00F015CB702D0000107D064CF4F
:100DC0001FF0000102EC00F046D701D004D03F50E4
:100DD0003F2A0308EDE22CEF00F0656A0F015C6B1F
:100DE000080E5F6F97501809976E206A176AF2BE57
:100DF000178EF29E00019FEC01F017BEF28E02EFFB
:100E000007F0EBD72BEF07F0176AF2BE178EF29EB2
:100E10009FEC01F017BEF28E656A140E0F015F6F32
:100E20005C6B6586010E206E00011AEF07F065B657
:100E300001D0EAD7202C0DD065BA0BD0626A0F0121
:100E40005C6BA088C00EF212110E5C6F020E206E59
:100E500000011200D6D7EBDF20500208FCE152EF70
:100E600008F0195202E10400FCD754EF08F01950C1
:100E7000016E56EF08F0036A2E504C0FE96E0F0E0C
:100E80000320EA6EEF520DE02E50080DF350306A49
:100E90002F6EE96E040E3024EA6EEFCF31F031AEE2
:100EA00002D0000E01D0010E016E5BEF08F033504E
:100EB000080DF3503E6A3D6E020E3D24016E000E99
:100EC0003E20036E01C0E9FF040E0324EA6EECCF5E
:100ED00039F0ED52EFCF38F03350080DF3503E6A41
:100EE0003D6E010E3D24016E000E3E20036E01C0DA
:100EF000E9FF040E0324EA6E3C6AEFCF3BF0335067
:100F0000080DF3503E6AE96E040E3E24EA6EEFCF00
:100F10003AF03AA001D03C803AA201D03C823C5049
:100F2000375C08E303E136503B5C04E23CC037F039
:100F30003BC036F035C0EAFF34C0E9FF39C0E2FFFC
:100F400038C0E1FF37C002F036C001F0015202E0C4
:100F5000022A02D0025206E0E6CFEEFF012EFCD7B5
:100F6000022EFAD736C001F037C002F0C3EF07F007
:100F70002EC033F030C035F02FC034F032C037F01F
:100F800031C036F094D702C032F001C031F0176A98
:100F9000F2BE178EF29E2EC042F0020E436E4CDD62
:100FA00017BEF28E31C001F032C002F066EF08F0D9
:100FB000176AF2BE178EF29E2EC047F0A0DD17BE54
:100FC000F28E015242E02E50080DF350376A366E11
:100FD000040E3626000E3722020E3624016E000E55
:100FE0003720036E01C0E9FF040E0324EA6EECCF44
:100FF00035F0ED52EFCF34F035C0EAFF34C0E9FFF1
:1010000030C0E2FF2FC0E1FF32C002F031C001F07A
:10101000015202E0022A02D0025206E0E6CFEEFFC1
:10102000012EFCD7022EFAD7176AF2BE178EF29E57
:101030002EC042F032C044F031C043F033C045F01E
:101040007EDD17BEF28E015002D0000E016E82EFDF
:1010500008F0F86AD09E078E400E9B6E700ED36E1D
:10106000D3502D6AC088FF0EC16EC098C29CC29E2C
:10107000C088FF0EC26EC098D26AD16A1C6A040E84
:101080001D6E0C0E1E6E286A296A2A6A2B6A2C6A4B
:10109000000E9A6E936E020E956E9A6A916A936A2A
:1010A0008A6AD8D6C4DEDDD6C2DEE1D601522AE095
:1010B000010E2E6EE0D6015213E0010E2E6E306A44
:1010C000280E2F6E326A030E316E52D7282C03D0B1
:1010D00093908A8002D093908A909A6A29C091FF57
:1010E00083B201D02D2A2D3C01D02D6A2DC02BF0CA
:1010F000010E2E6E306A2B0E2F6E326A020E316E8A
:08110000336E56D7D1D703006E
:020000040001F9
:06FFF800ACF342FFF0FF34
:00000001FF
;PIC18F87J50
;CRC=2241  CREATED="13-dic-16 10:58"
